{
  "contractName": "FishBase",
  "abi": [
    {
      "constant": true,
      "inputs": [
        {
          "name": "",
          "type": "uint256"
        }
      ],
      "name": "fishIndexToOwner",
      "outputs": [
        {
          "name": "",
          "type": "address"
        }
      ],
      "payable": false,
      "stateMutability": "view",
      "type": "function"
    },
    {
      "anonymous": false,
      "inputs": [
        {
          "indexed": false,
          "name": "from",
          "type": "address"
        },
        {
          "indexed": false,
          "name": "to",
          "type": "address"
        },
        {
          "indexed": false,
          "name": "tokenId",
          "type": "uint256"
        }
      ],
      "name": "Transfer",
      "type": "event"
    }
  ],
  "bytecode": "0x6060604052341561000f57600080fd5b6101038061001e6000396000f300606060405260043610603f576000357c0100000000000000000000000000000000000000000000000000000000900463ffffffff1680639b9006de146044575b600080fd5b3415604e57600080fd5b6062600480803590602001909190505060a4565b604051808273ffffffffffffffffffffffffffffffffffffffff1673ffffffffffffffffffffffffffffffffffffffff16815260200191505060405180910390f35b60016020528060005260406000206000915054906101000a900473ffffffffffffffffffffffffffffffffffffffff16815600a165627a7a723058201f79244c1e8f0fc7965e2501dc05480c476390f766c27d82ed1ddbd917e3f80b0029",
  "source": "pragma solidity ^0.4.2;\n\ncontract ERC721 {\n    function totalSupply() public view returns (uint256 total);\n    function balanceOf(address _owner) public view returns (uint256 balance);\n    function ownerOf(uint256 _tokenId) external view returns (address owner);\n    function transfer(address _to, uint256 _tokenId) external;\n\n    // Events\n    event Transfer(address from, address to, uint256 tokenId);\n}\n\ncontract FishBase {\n\n    event Transfer(address from, address to, uint256 tokenId);\n\n    struct Fish {\n        uint64 birthTime;\n        uint256 genes;\n        uint256 price;\n    }\n\n    Fish[] fishes;\n\n    mapping (uint256 => address) public fishIndexToOwner;\n    mapping (address => uint256) ownershipTokenCount;\n\n    function _transfer(address _from, address _to, uint256 _tokenId) internal {\n        if (_from != address(0)) {\n            ownershipTokenCount[_from]--;\n        }\n        ownershipTokenCount[_to]++;\n        fishIndexToOwner[_tokenId] = _to;\n\n        Transfer(_from, _to, _tokenId);\n    }\n\n    function _createFish(uint256 _genes, uint256 _price, address _owner) internal returns (uint) {\n        require(_owner != address(0));\n\n        Fish memory _fish = Fish({\n            genes: _genes,\n            birthTime: uint16(now),\n            price: _price\n        });\n\n        uint256 newFishId = fishes.push(_fish) - 1;\n        _transfer(0, _owner, newFishId);\n\n        return newFishId;\n    }\n}\n\ncontract FishCore is FishBase, ERC721 {\n    string public constant name = \"GoldFish\";\n    string public constant symbol = \"GF\";\n\n    function FishCore() public {\n        _createFish(123, 15, msg.sender);\n        _createFish(345, 26, msg.sender);\n        _createFish(567, 37, msg.sender);\n        _createFish(789, 48, msg.sender);\n    }\n\n    function _owns(address _claimant, uint256 _tokenId) internal view returns (bool) {\n        return fishIndexToOwner[_tokenId] == _claimant;\n    }\n\n    function balanceOf(address _owner) public view returns (uint256 count) {\n        return ownershipTokenCount[_owner];\n    }\n\n    function transfer(address _to, uint256 _tokenId) external {\n        require(_to != address(0));\n        require(_to != address(this));\n        require(_owns(msg.sender, _tokenId));\n        _transfer(msg.sender, _to, _tokenId);\n    }\n\n     function totalSupply() public view returns (uint) {\n        return fishes.length;\n     }\n\n    function ownerOf(uint256 _tokenId) external view returns (address owner) {\n        owner = fishIndexToOwner[_tokenId];\n\n        require(owner != address(0));\n    }\n\n    function tokensOfOwner(address _owner) external view returns(uint256[] ownerTokens) {\n        uint256 tokenCount = balanceOf(_owner);\n        if (tokenCount == 0) {\n            return new uint256[](0);\n        } else {\n            uint256[] memory result = new uint256[](tokenCount);\n            uint256 totalFishes = totalSupply();\n            uint256 resultIndex = 0;\n\n            uint256 fishId;\n\n            for (fishId = 1; fishId <= totalFishes-1; fishId++) {\n                if (fishIndexToOwner[fishId] == _owner) {\n                    result[resultIndex] = fishId;\n                    resultIndex++;\n                }\n            }\n            return result;\n        }\n    }\n\n    function getFish(uint256 _id) public view returns (uint256 birthTime, uint256 genes, uint256 price) {\n        Fish storage fish = fishes[_id];\n        price = fish.price;\n        genes = fish.genes;\n        birthTime = fish.birthTime;\n    }\n\n    function getFishesPrice() public view returns (uint256[]) {\n       uint256 totalFishes = totalSupply();\n       uint256[] memory result = new uint256[](totalFishes);\n       uint256 i;\n       for (i=0; i < totalFishes; i++) {\n           result[i] = fishes[i].price;\n       } \n\n       return result;\n    }\n\n    function buyFish(uint256 _fishId) external payable returns (bool) {\n        Fish storage fish = fishes[_fishId];\n        require(msg.value == fish.price);\n        address owner = fishIndexToOwner[_fishId];\n        msg.sender.transfer(fish.price);\n        _transfer(owner, msg.sender, _fishId);\n    }\n}",
  "sourcePath": "/Users/Yee/Documents/Documents/blockchain/20180303区块链沙龙第4期/demo/fish/contracts/FishCore.sol",
  "compiler": {
    "name": "solc",
    "version": "0.4.18+commit.9cf6e910.Emscripten.clang"
  },
  "schemaVersion": "1.0.1",
  "updatedAt": "2018-03-03T03:04:39.429Z"
}