{
  "contractName": "FishCore",
  "abi": [
    {
      "constant": true,
      "inputs": [],
      "name": "name",
      "outputs": [
        {
          "name": "",
          "type": "string"
        }
      ],
      "payable": false,
      "stateMutability": "view",
      "type": "function"
    },
    {
      "constant": true,
      "inputs": [],
      "name": "getFishesPrice",
      "outputs": [
        {
          "name": "",
          "type": "uint256[]"
        }
      ],
      "payable": false,
      "stateMutability": "view",
      "type": "function"
    },
    {
      "constant": true,
      "inputs": [
        {
          "name": "_id",
          "type": "uint256"
        }
      ],
      "name": "getFish",
      "outputs": [
        {
          "name": "birthTime",
          "type": "uint256"
        },
        {
          "name": "genes",
          "type": "uint256"
        },
        {
          "name": "price",
          "type": "uint256"
        }
      ],
      "payable": false,
      "stateMutability": "view",
      "type": "function"
    },
    {
      "constant": true,
      "inputs": [],
      "name": "totalSupply",
      "outputs": [
        {
          "name": "",
          "type": "uint256"
        }
      ],
      "payable": false,
      "stateMutability": "view",
      "type": "function"
    },
    {
      "constant": false,
      "inputs": [
        {
          "name": "_fishId",
          "type": "uint256"
        }
      ],
      "name": "buyFish",
      "outputs": [
        {
          "name": "",
          "type": "bool"
        }
      ],
      "payable": true,
      "stateMutability": "payable",
      "type": "function"
    },
    {
      "constant": true,
      "inputs": [
        {
          "name": "_tokenId",
          "type": "uint256"
        }
      ],
      "name": "ownerOf",
      "outputs": [
        {
          "name": "owner",
          "type": "address"
        }
      ],
      "payable": false,
      "stateMutability": "view",
      "type": "function"
    },
    {
      "constant": true,
      "inputs": [
        {
          "name": "_owner",
          "type": "address"
        }
      ],
      "name": "balanceOf",
      "outputs": [
        {
          "name": "count",
          "type": "uint256"
        }
      ],
      "payable": false,
      "stateMutability": "view",
      "type": "function"
    },
    {
      "constant": true,
      "inputs": [
        {
          "name": "_owner",
          "type": "address"
        }
      ],
      "name": "tokensOfOwner",
      "outputs": [
        {
          "name": "ownerTokens",
          "type": "uint256[]"
        }
      ],
      "payable": false,
      "stateMutability": "view",
      "type": "function"
    },
    {
      "constant": true,
      "inputs": [],
      "name": "symbol",
      "outputs": [
        {
          "name": "",
          "type": "string"
        }
      ],
      "payable": false,
      "stateMutability": "view",
      "type": "function"
    },
    {
      "constant": true,
      "inputs": [
        {
          "name": "",
          "type": "uint256"
        }
      ],
      "name": "fishIndexToOwner",
      "outputs": [
        {
          "name": "",
          "type": "address"
        }
      ],
      "payable": false,
      "stateMutability": "view",
      "type": "function"
    },
    {
      "constant": false,
      "inputs": [
        {
          "name": "_to",
          "type": "address"
        },
        {
          "name": "_tokenId",
          "type": "uint256"
        }
      ],
      "name": "transfer",
      "outputs": [],
      "payable": false,
      "stateMutability": "nonpayable",
      "type": "function"
    },
    {
      "inputs": [],
      "payable": false,
      "stateMutability": "nonpayable",
      "type": "constructor"
    },
    {
      "anonymous": false,
      "inputs": [
        {
          "indexed": false,
          "name": "from",
          "type": "address"
        },
        {
          "indexed": false,
          "name": "to",
          "type": "address"
        },
        {
          "indexed": false,
          "name": "tokenId",
          "type": "uint256"
        }
      ],
      "name": "Transfer",
      "type": "event"
    }
  ],
  "bytecode": "0x606060405234156200001057600080fd5b62000033607b600f33620000a96401000000000262000c0f176401000000009004565b5062000058610159601a33620000a96401000000000262000c0f176401000000009004565b506200007d610237602533620000a96401000000000262000c0f176401000000009004565b50620000a2610315603033620000a96401000000000262000c0f176401000000009004565b506200043e565b6000620000b562000390565b60008073ffffffffffffffffffffffffffffffffffffffff168473ffffffffffffffffffffffffffffffffffffffff1614151515620000f357600080fd5b6060604051908101604052804261ffff1667ffffffffffffffff168152602001878152602001868152509150600160008054806001018281620001379190620003bc565b9160005260206000209060030201600085909190915060008201518160000160006101000a81548167ffffffffffffffff021916908367ffffffffffffffff16021790555060208201518160010155604082015181600201555050039050620001b760008583620001c364010000000002620009c3176401000000009004565b80925050509392505050565b600073ffffffffffffffffffffffffffffffffffffffff168373ffffffffffffffffffffffffffffffffffffffff161415156200024b57600260008473ffffffffffffffffffffffffffffffffffffffff1673ffffffffffffffffffffffffffffffffffffffff16815260200190815260200160002060008154809291906001900391905055505b600260008373ffffffffffffffffffffffffffffffffffffffff1673ffffffffffffffffffffffffffffffffffffffff16815260200190815260200160002060008154809291906001019190505550816001600083815260200190815260200160002060006101000a81548173ffffffffffffffffffffffffffffffffffffffff021916908373ffffffffffffffffffffffffffffffffffffffff1602179055507fddf252ad1be2c89b69c2b068fc378daa952ba7f163c4a11628f55a4df523b3ef838383604051808473ffffffffffffffffffffffffffffffffffffffff1673ffffffffffffffffffffffffffffffffffffffff1681526020018373ffffffffffffffffffffffffffffffffffffffff1673ffffffffffffffffffffffffffffffffffffffff168152602001828152602001935050505060405180910390a1505050565b606060405190810160405280600067ffffffffffffffff16815260200160008152602001600081525090565b815481835581811511620003ec57600302816003028360005260206000209182019101620003eb9190620003f1565b5b505050565b6200043b91905b808211156200043757600080820160006101000a81549067ffffffffffffffff02191690556001820160009055600282016000905550600301620003f8565b5090565b90565b610de2806200044e6000396000f3006060604052600436106100af576000357c0100000000000000000000000000000000000000000000000000000000900463ffffffff16806306fdde03146100b457806309976eed1461014257806315497212146101ac57806318160ddd146101f15780632c28fdf81461021a5780636352211e1461024a57806370a08231146102ad5780638462151c146102fa57806395d89b41146103885780639b9006de14610416578063a9059cbb14610479575b600080fd5b34156100bf57600080fd5b6100c76104bb565b6040518080602001828103825283818151815260200191508051906020019080838360005b838110156101075780820151818401526020810190506100ec565b50505050905090810190601f1680156101345780820380516001836020036101000a031916815260200191505b509250505060405180910390f35b341561014d57600080fd5b6101556104f4565b6040518080602001828103825283818151815260200191508051906020019060200280838360005b8381101561019857808201518184015260208101905061017d565b505050509050019250505060405180910390f35b34156101b757600080fd5b6101cd6004808035906020019091905050610593565b60405180848152602001838152602001828152602001935050505060405180910390f35b34156101fc57600080fd5b6102046105f3565b6040518082815260200191505060405180910390f35b61023060048080359060200190919050506105ff565b604051808215151515815260200191505060405180910390f35b341561025557600080fd5b61026b60048080359060200190919050506106c0565b604051808273ffffffffffffffffffffffffffffffffffffffff1673ffffffffffffffffffffffffffffffffffffffff16815260200191505060405180910390f35b34156102b857600080fd5b6102e4600480803573ffffffffffffffffffffffffffffffffffffffff16906020019091905050610739565b6040518082815260200191505060405180910390f35b341561030557600080fd5b610331600480803573ffffffffffffffffffffffffffffffffffffffff16906020019091905050610782565b6040518080602001828103825283818151815260200191508051906020019060200280838360005b83811015610374578082015181840152602081019050610359565b505050509050019250505060405180910390f35b341561039357600080fd5b61039b6108bc565b6040518080602001828103825283818151815260200191508051906020019080838360005b838110156103db5780820151818401526020810190506103c0565b50505050905090810190601f1680156104085780820380516001836020036101000a031916815260200191505b509250505060405180910390f35b341561042157600080fd5b61043760048080359060200190919050506108f5565b604051808273ffffffffffffffffffffffffffffffffffffffff1673ffffffffffffffffffffffffffffffffffffffff16815260200191505060405180910390f35b341561048457600080fd5b6104b9600480803573ffffffffffffffffffffffffffffffffffffffff16906020019091908035906020019091905050610928565b005b6040805190810160405280600881526020017f476f6c644669736800000000000000000000000000000000000000000000000081525081565b6104fc610bfb565b6000610506610bfb565b60006105106105f3565b9250826040518059106105205750595b90808252806020026020018201604052509150600090505b8281101561058a5760008181548110151561054f57fe5b906000526020600020906003020160020154828281518110151561056f57fe5b90602001906020020181815250508080600101915050610538565b81935050505090565b6000806000806000858154811015156105a857fe5b9060005260206000209060030201905080600201549150806001015492508060000160009054906101000a900467ffffffffffffffff1667ffffffffffffffff169350509193909250565b60008080549050905090565b6000806000808481548110151561061257fe5b9060005260206000209060030201915081600201543414151561063457600080fd5b6001600085815260200190815260200160002060009054906101000a900473ffffffffffffffffffffffffffffffffffffffff1690503373ffffffffffffffffffffffffffffffffffffffff166108fc83600201549081150290604051600060405180830381858888f1935050505015156106ae57600080fd5b6106b98133866109c3565b5050919050565b60006001600083815260200190815260200160002060009054906101000a900473ffffffffffffffffffffffffffffffffffffffff169050600073ffffffffffffffffffffffffffffffffffffffff168173ffffffffffffffffffffffffffffffffffffffff161415151561073457600080fd5b919050565b6000600260008373ffffffffffffffffffffffffffffffffffffffff1673ffffffffffffffffffffffffffffffffffffffff168152602001908152602001600020549050919050565b61078a610bfb565b6000610794610bfb565b60008060006107a287610739565b945060008514156107d45760006040518059106107bc5750595b908082528060200260200182016040525095506108b2565b846040518059106107e25750595b908082528060200260200182016040525093506107fd6105f3565b925060009150600190505b60018303811115156108ae578673ffffffffffffffffffffffffffffffffffffffff166001600083815260200190815260200160002060009054906101000a900473ffffffffffffffffffffffffffffffffffffffff1673ffffffffffffffffffffffffffffffffffffffff1614156108a15780848381518110151561088a57fe5b906020019060200201818152505081806001019250505b8080600101915050610808565b8395505b5050505050919050565b6040805190810160405280600281526020017f474600000000000000000000000000000000000000000000000000000000000081525081565b60016020528060005260406000206000915054906101000a900473ffffffffffffffffffffffffffffffffffffffff1681565b600073ffffffffffffffffffffffffffffffffffffffff168273ffffffffffffffffffffffffffffffffffffffff161415151561096457600080fd5b3073ffffffffffffffffffffffffffffffffffffffff168273ffffffffffffffffffffffffffffffffffffffff161415151561099f57600080fd5b6109a93382610b8f565b15156109b457600080fd5b6109bf3383836109c3565b5050565b600073ffffffffffffffffffffffffffffffffffffffff168373ffffffffffffffffffffffffffffffffffffffff16141515610a4a57600260008473ffffffffffffffffffffffffffffffffffffffff1673ffffffffffffffffffffffffffffffffffffffff16815260200190815260200160002060008154809291906001900391905055505b600260008373ffffffffffffffffffffffffffffffffffffffff1673ffffffffffffffffffffffffffffffffffffffff16815260200190815260200160002060008154809291906001019190505550816001600083815260200190815260200160002060006101000a81548173ffffffffffffffffffffffffffffffffffffffff021916908373ffffffffffffffffffffffffffffffffffffffff1602179055507fddf252ad1be2c89b69c2b068fc378daa952ba7f163c4a11628f55a4df523b3ef838383604051808473ffffffffffffffffffffffffffffffffffffffff1673ffffffffffffffffffffffffffffffffffffffff1681526020018373ffffffffffffffffffffffffffffffffffffffff1673ffffffffffffffffffffffffffffffffffffffff168152602001828152602001935050505060405180910390a1505050565b60008273ffffffffffffffffffffffffffffffffffffffff166001600084815260200190815260200160002060009054906101000a900473ffffffffffffffffffffffffffffffffffffffff1673ffffffffffffffffffffffffffffffffffffffff1614905092915050565b602060405190810160405280600081525090565b6000610c19610d0e565b60008073ffffffffffffffffffffffffffffffffffffffff168473ffffffffffffffffffffffffffffffffffffffff1614151515610c5657600080fd5b6060604051908101604052804261ffff1667ffffffffffffffff168152602001878152602001868152509150600160008054806001018281610c989190610d3a565b9160005260206000209060030201600085909190915060008201518160000160006101000a81548167ffffffffffffffff021916908367ffffffffffffffff16021790555060208201518160010155604082015181600201555050039050610d02600085836109c3565b80925050509392505050565b606060405190810160405280600067ffffffffffffffff16815260200160008152602001600081525090565b815481835581811511610d6757600302816003028360005260206000209182019101610d669190610d6c565b5b505050565b610db391905b80821115610daf57600080820160006101000a81549067ffffffffffffffff02191690556001820160009055600282016000905550600301610d72565b5090565b905600a165627a7a7230582075480a262822a36ad5925ba8a9492b4034b90c06d63a57f2ec943b9e1485c8de0029",
  "source": "pragma solidity ^0.4.2;\n\ncontract ERC721 {\n    function totalSupply() public view returns (uint256 total);\n    function balanceOf(address _owner) public view returns (uint256 balance);\n    function ownerOf(uint256 _tokenId) external view returns (address owner);\n    function transfer(address _to, uint256 _tokenId) external;\n\n    // Events\n    event Transfer(address from, address to, uint256 tokenId);\n}\n\ncontract FishBase {\n\n    event Transfer(address from, address to, uint256 tokenId);\n\n    struct Fish {\n        uint64 birthTime;\n        uint256 genes;\n        uint256 price;\n    }\n\n    Fish[] fishes;\n\n    mapping (uint256 => address) public fishIndexToOwner;\n    mapping (address => uint256) ownershipTokenCount;\n\n    function _transfer(address _from, address _to, uint256 _tokenId) internal {\n        if (_from != address(0)) {\n            ownershipTokenCount[_from]--;\n        }\n        ownershipTokenCount[_to]++;\n        fishIndexToOwner[_tokenId] = _to;\n\n        Transfer(_from, _to, _tokenId);\n    }\n\n    function _createFish(uint256 _genes, uint256 _price, address _owner) internal returns (uint) {\n        require(_owner != address(0));\n\n        Fish memory _fish = Fish({\n            genes: _genes,\n            birthTime: uint16(now),\n            price: _price\n        });\n\n        uint256 newFishId = fishes.push(_fish) - 1;\n        _transfer(0, _owner, newFishId);\n\n        return newFishId;\n    }\n}\n\ncontract FishCore is FishBase, ERC721 {\n    string public constant name = \"GoldFish\";\n    string public constant symbol = \"GF\";\n\n    function FishCore() public {\n        _createFish(123, 15, msg.sender);\n        _createFish(345, 26, msg.sender);\n        _createFish(567, 37, msg.sender);\n        _createFish(789, 48, msg.sender);\n    }\n\n    function _owns(address _claimant, uint256 _tokenId) internal view returns (bool) {\n        return fishIndexToOwner[_tokenId] == _claimant;\n    }\n\n    function balanceOf(address _owner) public view returns (uint256 count) {\n        return ownershipTokenCount[_owner];\n    }\n\n    function transfer(address _to, uint256 _tokenId) external {\n        require(_to != address(0));\n        require(_to != address(this));\n        require(_owns(msg.sender, _tokenId));\n        _transfer(msg.sender, _to, _tokenId);\n    }\n\n     function totalSupply() public view returns (uint) {\n        return fishes.length;\n     }\n\n    function ownerOf(uint256 _tokenId) external view returns (address owner) {\n        owner = fishIndexToOwner[_tokenId];\n\n        require(owner != address(0));\n    }\n\n    function tokensOfOwner(address _owner) external view returns(uint256[] ownerTokens) {\n        uint256 tokenCount = balanceOf(_owner);\n        if (tokenCount == 0) {\n            return new uint256[](0);\n        } else {\n            uint256[] memory result = new uint256[](tokenCount);\n            uint256 totalFishes = totalSupply();\n            uint256 resultIndex = 0;\n\n            uint256 fishId;\n\n            for (fishId = 1; fishId <= totalFishes-1; fishId++) {\n                if (fishIndexToOwner[fishId] == _owner) {\n                    result[resultIndex] = fishId;\n                    resultIndex++;\n                }\n            }\n            return result;\n        }\n    }\n\n    function getFish(uint256 _id) public view returns (uint256 birthTime, uint256 genes, uint256 price) {\n        Fish storage fish = fishes[_id];\n        price = fish.price;\n        genes = fish.genes;\n        birthTime = fish.birthTime;\n    }\n\n    function getFishesPrice() public view returns (uint256[]) {\n       uint256 totalFishes = totalSupply();\n       uint256[] memory result = new uint256[](totalFishes);\n       uint256 i;\n       for (i=0; i < totalFishes; i++) {\n           result[i] = fishes[i].price;\n       } \n\n       return result;\n    }\n\n    function buyFish(uint256 _fishId) external payable returns (bool) {\n        Fish storage fish = fishes[_fishId];\n        require(msg.value == fish.price);\n        address owner = fishIndexToOwner[_fishId];\n        msg.sender.transfer(fish.price);\n        _transfer(owner, msg.sender, _fishId);\n    }\n}",
  "sourcePath": "/Users/Yee/Documents/Documents/blockchain/20180303区块链沙龙第4期/demo/fish/contracts/FishCore.sol",
  "compiler": {
    "name": "solc",
    "version": "0.4.18+commit.9cf6e910.Emscripten.clang"
  },
  "schemaVersion": "1.0.1",
  "updatedAt": "2018-03-03T03:04:47.060Z"
}